{
  "contractName": "VoteFactory",
  "abi": [
    {
      "inputs": [
        {
          "internalType": "uint256",
          "name": "",
          "type": "uint256"
        }
      ],
      "name": "voteList",
      "outputs": [
        {
          "internalType": "string",
          "name": "name",
          "type": "string"
        },
        {
          "internalType": "contract Vote",
          "name": "vote",
          "type": "address"
        }
      ],
      "stateMutability": "view",
      "type": "function"
    },
    {
      "inputs": [
        {
          "internalType": "string",
          "name": "name",
          "type": "string"
        },
        {
          "internalType": "uint256",
          "name": "option",
          "type": "uint256"
        },
        {
          "internalType": "uint256",
          "name": "max",
          "type": "uint256"
        },
        {
          "internalType": "uint256",
          "name": "t1",
          "type": "uint256"
        },
        {
          "internalType": "uint256",
          "name": "t2",
          "type": "uint256"
        },
        {
          "internalType": "uint256",
          "name": "t3",
          "type": "uint256"
        },
        {
          "internalType": "uint256",
          "name": "t4",
          "type": "uint256"
        },
        {
          "internalType": "uint256",
          "name": "t5",
          "type": "uint256"
        }
      ],
      "name": "CreateVote",
      "outputs": [],
      "stateMutability": "nonpayable",
      "type": "function"
    },
    {
      "inputs": [],
      "name": "GetVoteList",
      "outputs": [
        {
          "components": [
            {
              "internalType": "string",
              "name": "name",
              "type": "string"
            },
            {
              "internalType": "contract Vote",
              "name": "vote",
              "type": "address"
            }
          ],
          "internalType": "struct VoteFactory.VoteInfo[]",
          "name": "",
          "type": "tuple[]"
        }
      ],
      "stateMutability": "view",
      "type": "function"
    }
  ],
  "bytecode": "0x608060405234801561001057600080fd5b506122af806100206000396000f3fe60806040523480156200001157600080fd5b5060043610620000465760003560e01c806328fca442146200004b578063a064285d146200006d578063a3989703146200008d575b600080fd5b62000055620000c4565b60405162000064919062000958565b60405180910390f35b6200008b6004803603810190620000859190620005ca565b62000221565b005b620000ab6004803603810190620000a59190620006a6565b620003ac565b604051620000bb9291906200097c565b60405180910390f35b60606000805480602002602001604051908101604052809291908181526020016000905b82821015620002185783829060005260206000209060020201604051806040016040529081600082018054600181600116156101000203166002900480601f016020809104026020016040519081016040528092919081815260200182805460018160011615610100020316600290048015620001a95780601f106200017d57610100808354040283529160200191620001a9565b820191906000526020600020905b8154815290600101906020018083116200018b57829003601f168201915b505050505081526020016001820160009054906101000a900473ffffffffffffffffffffffffffffffffffffffff1673ffffffffffffffffffffffffffffffffffffffff1673ffffffffffffffffffffffffffffffffffffffff168152505081526020019060010190620000e8565b50505050905090565b42851180156200023057508484115b80156200023c57508383115b80156200024857508282115b80156200025457508181115b62000296576040517f08c379a00000000000000000000000000000000000000000000000000000000081526004016200028d90620009b0565b60405180910390fd5b6000338989898989898989604051620002af906200049a565b620002c399989796959493929190620008b2565b604051809103906000f080158015620002e0573d6000803e3d6000fd5b509050600060405180604001604052808b81526020018373ffffffffffffffffffffffffffffffffffffffff168152509080600181540180825580915050600190039060005260206000209060020201600090919091909150600082015181600001908051906020019062000357929190620004a8565b5060208201518160010160006101000a81548173ffffffffffffffffffffffffffffffffffffffff021916908373ffffffffffffffffffffffffffffffffffffffff1602179055505050505050505050505050565b60008181548110620003ba57fe5b9060005260206000209060020201600091509050806000018054600181600116156101000203166002900480601f0160208091040260200160405190810160405280929190818152602001828054600181600116156101000203166002900480156200046a5780601f106200043e576101008083540402835291602001916200046a565b820191906000526020600020905b8154815290600101906020018083116200044c57829003601f168201915b5050505050908060010160009054906101000a900473ffffffffffffffffffffffffffffffffffffffff16905082565b6116e88062000b9283390190565b828054600181600116156101000203166002900490600052602060002090601f016020900481019282601f10620004eb57805160ff19168380011785556200051c565b828001600101855582156200051c579182015b828111156200051b578251825591602001919060010190620004fe565b5b5090506200052b91906200052f565b5090565b6200055491905b808211156200055057600081600090555060010162000536565b5090565b90565b600082601f8301126200056957600080fd5b8135620005806200057a8262000a00565b620009d2565b915080825260208301602083018583830111156200059d57600080fd5b620005aa83828462000b21565b50505092915050565b600081359050620005c48162000b77565b92915050565b600080600080600080600080610100898b031215620005e857600080fd5b600089013567ffffffffffffffff8111156200060357600080fd5b620006118b828c0162000557565b9850506020620006248b828c01620005b3565b9750506040620006378b828c01620005b3565b96505060606200064a8b828c01620005b3565b95505060806200065d8b828c01620005b3565b94505060a0620006708b828c01620005b3565b93505060c0620006838b828c01620005b3565b92505060e0620006968b828c01620005b3565b9150509295985092959890939650565b600060208284031215620006b957600080fd5b6000620006c984828501620005b3565b91505092915050565b6000620006e0838362000860565b905092915050565b620006f38162000abd565b82525050565b6000620007068262000a3d565b62000712818562000a60565b935083602082028501620007268562000a2d565b8060005b85811015620007685784840389528151620007468582620006d2565b9450620007538362000a53565b925060208a019950506001810190506200072a565b50829750879550505050505092915050565b620007858162000ad1565b82525050565b620007968162000ad1565b82525050565b6000620007a98262000a48565b620007b5818562000a71565b9350620007c781856020860162000b30565b620007d28162000b66565b840191505092915050565b6000620007ea8262000a48565b620007f6818562000a82565b93506200080881856020860162000b30565b620008138162000b66565b840191505092915050565b60006200082d60148362000a82565b91507f54494d4520504152414d45544552204552524f520000000000000000000000006000830152602082019050919050565b600060408301600083015184820360008601526200087f82826200079c565b91505060208301516200089660208601826200077a565b508091505092915050565b620008ac8162000ab3565b82525050565b600061012082019050620008ca600083018c620006e8565b8181036020830152620008de818b620007dd565b9050620008ef604083018a620008a1565b620008fe6060830189620008a1565b6200090d6080830188620008a1565b6200091c60a0830187620008a1565b6200092b60c0830186620008a1565b6200093a60e0830185620008a1565b6200094a610100830184620008a1565b9a9950505050505050505050565b60006020820190508181036000830152620009748184620006f9565b905092915050565b60006040820190508181036000830152620009988185620007dd565b9050620009a960208301846200078b565b9392505050565b60006020820190508181036000830152620009cb816200081e565b9050919050565b6000604051905081810181811067ffffffffffffffff82111715620009f657600080fd5b8060405250919050565b600067ffffffffffffffff82111562000a1857600080fd5b601f19601f8301169050602081019050919050565b6000819050602082019050919050565b600081519050919050565b600081519050919050565b6000602082019050919050565b600082825260208201905092915050565b600082825260208201905092915050565b600082825260208201905092915050565b600073ffffffffffffffffffffffffffffffffffffffff82169050919050565b6000819050919050565b600062000aca8262000af9565b9050919050565b600062000ade8262000ae5565b9050919050565b600062000af28262000a93565b9050919050565b600062000b068262000b0d565b9050919050565b600062000b1a8262000a93565b9050919050565b82818337600083830152505050565b60005b8381101562000b5057808201518184015260208101905062000b33565b8381111562000b60576000848401525b50505050565b6000601f19601f8301169050919050565b62000b828162000ab3565b811462000b8e57600080fd5b5056fe60806040526040518060400160405280620249f18152602001600781525060008082015181600001556020820151816001015550506001600755600d60085560006009556000600a553480156200005557600080fd5b50604051620016e8380380620016e883398181016040528101906200007b9190620002a9565b88600e60006101000a81548173ffffffffffffffffffffffffffffffffffffffff021916908373ffffffffffffffffffffffffffffffffffffffff16021790555087600f9080519060200190620000d492919062000170565b505b8560075460020a11620000f557600160075401600781905550620000d6565b85600a81905550866009819055506040518060a0016040528086815260200185815260200184815260200183815260200182815250600260008201518160000155602082015181600101556040820151816002015560608201518160030155608082015181600401559050505050505050505050506200049e565b828054600181600116156101000203166002900490600052602060002090601f016020900481019282601f10620001b357805160ff1916838001178555620001e4565b82800160010185558215620001e4579182015b82811115620001e3578251825591602001919060010190620001c6565b5b509050620001f39190620001f7565b5090565b6200021c91905b8082111562000218576000816000905550600101620001fe565b5090565b90565b60008151905062000230816200046a565b92915050565b600082601f8301126200024857600080fd5b81516200025f6200025982620003c9565b6200039b565b915080825260208301602083018583830111156200027c57600080fd5b6200028983828462000434565b50505092915050565b600081519050620002a38162000484565b92915050565b60008060008060008060008060006101208a8c031215620002c957600080fd5b6000620002d98c828d016200021f565b99505060208a015167ffffffffffffffff811115620002f757600080fd5b620003058c828d0162000236565b9850506040620003188c828d0162000292565b97505060606200032b8c828d0162000292565b96505060806200033e8c828d0162000292565b95505060a0620003518c828d0162000292565b94505060c0620003648c828d0162000292565b93505060e0620003778c828d0162000292565b9250506101006200038b8c828d0162000292565b9150509295985092959850929598565b6000604051905081810181811067ffffffffffffffff82111715620003bf57600080fd5b8060405250919050565b600067ffffffffffffffff821115620003e157600080fd5b601f19601f8301169050602081019050919050565b600062000403826200040a565b9050919050565b600073ffffffffffffffffffffffffffffffffffffffff82169050919050565b6000819050919050565b60005b838110156200045457808201518184015260208101905062000437565b8381111562000464576000848401525b50505050565b6200047581620003f6565b81146200048157600080fd5b50565b6200048f816200042a565b81146200049b57600080fd5b50565b61123a80620004ae6000396000f3fe608060405234801561001057600080fd5b50600436106100885760003560e01c806360977a731161005b57806360977a731461013f5780638c7a59b01461016257806399c9d44214610192578063c3b6fbad146101c257610088565b8063086dc20f1461008d5780630c791324146100bd57806330004d5d146100db57806350e2e8af1461010b575b600080fd5b6100a760048036038101906100a29190610b94565b6101f2565b6040516100b49190610f6f565b60405180910390f35b6100c56102c5565b6040516100d29190610f4d565b60405180910390f35b6100f560048036038101906100f091906109f6565b610356565b6040516101029190610f6f565b60405180910390f35b61012560048036038101906101209190610b08565b6104cc565b604051610136959493929190611096565b60405180910390f35b61014761050f565b60405161015996959493929190610f8a565b60405180910390f35b61017c60048036038101906101779190610b31565b610647565b6040516101899190610f6f565b60405180910390f35b6101ac60048036038101906101a79190610b94565b61077e565b6040516101b99190610f6f565b60405180910390f35b6101dc60048036038101906101d79190610b94565b61084a565b6040516101e99190610f6f565b60405180910390f35b60004260026001015410801561020c575042600260030154115b61024b576040517f08c379a000000000000000000000000000000000000000000000000000000000815260040161024290611036565b60405180910390fd5b84840a88840a0287148015610271575084820a886000600101540a8161026d57fe5b0486145b156102b55783600b600d6000858152602001908152602001600020548154811061029757fe5b906000526020600020906005020160020181905550600190506102ba565b600090505b979650505050505050565b6060600b805480602002602001604051908101604052809291908181526020016000905b8282101561034d57838290600052602060002090600502016040518060a001604052908160008201548152602001600182015481526020016002820154815260200160038201548152602001600482015481525050815260200190600101906102e9565b50505050905090565b600042600260000154108015610370575042600260010154115b6103af576040517f08c379a00000000000000000000000000000000000000000000000000000000081526004016103a690610ff6565b60405180910390fd5b60008090505b600954811015610484578681815181106103cb57fe5b6020026020010151830a8882815181106103e157fe5b60200260200101516000600101540a028a82815181106103fd57fe5b6020026020010151141580610468575086818151811061041957fe5b6020026020010151600754820260020a6000600101540a868161043857fe5b040a88828151811061044657fe5b6020026020010151850a0289828151811061045d57fe5b602002602001015114155b156104775760009150506104c0565b80806001019150506103b5565b5083600b600d600085815260200190815260200160002054815481106104a657fe5b906000526020600020906005020160010181905550600190505b98975050505050505050565b600b81815481106104d957fe5b90600052602060002090600502016000915090508060000154908060010154908060020154908060030154908060040154905085565b6060610519610915565b61052161092f565b6000806000600f60006002600754600854600954858054600181600116156101000203166002900480601f0160208091040260200160405190810160405280929190818152602001828054600181600116156101000203166002900480156105ca5780601f1061059f576101008083540402835291602001916105ca565b820191906000526020600020905b8154815290600101906020018083116105ad57829003601f168201915b5050505050955084604051806040016040529081600082015481526020016001820154815250509450836040518060a0016040529081600082015481526020016001820154815260200160028201548152602001600382015481526020016004820154815250509350955095509550955095509550909192939495565b60004260026000015411610690576040517f08c379a000000000000000000000000000000000000000000000000000000000815260040161068790611076565b60405180910390fd5b82820a856000600101540a02841480156106ad5750600a54600c54105b1561077157600b6040518060a001604052808481526020016000815260200160008152602001600081526020016000815250908060018154018082558091505060019003906000526020600020906005020160009091909190915060008201518160000155602082015181600101556040820151816002015560608201518160030155608082015181600401555050600c54600d600084815260200190815260200160002081905550600c6000815480929190600101919050555060019050610776565b600090505b949350505050565b600042600260030154108015610798575042600260040154115b6107d7576040517f08c379a00000000000000000000000000000000000000000000000000000000081526004016107ce90611016565b60405180910390fd5b84840a88840a02871480156107f6575084820a886000600101540a0286145b1561083a5783600b600d6000858152602001908152602001600020548154811061081c57fe5b9060005260206000209060050201600401819055506001905061083f565b600090505b979650505050505050565b6000426002600101541080156108635750426002800154115b6108a2576040517f08c379a000000000000000000000000000000000000000000000000000000000815260040161089990611056565b60405180910390fd5b84840a88840a02871480156108c1575084820a886000600101540a0286145b156109055783600b600d600085815260200190815260200160002054815481106108e757fe5b9060005260206000209060050201600301819055506001905061090a565b600090505b979650505050505050565b604051806040016040528060008152602001600081525090565b6040518060a0016040528060008152602001600081526020016000815260200160008152602001600081525090565b600082601f83011261096f57600080fd5b813561098261097d82611116565b6110e9565b915081818352602084019350602081019050838560208402820111156109a757600080fd5b60005b838110156109d757816109bd88826109e1565b8452602084019350602083019250506001810190506109aa565b5050505092915050565b6000813590506109f0816111ed565b92915050565b600080600080600080600080610100898b031215610a1357600080fd5b600089013567ffffffffffffffff811115610a2d57600080fd5b610a398b828c0161095e565b985050602089013567ffffffffffffffff811115610a5657600080fd5b610a628b828c0161095e565b975050604089013567ffffffffffffffff811115610a7f57600080fd5b610a8b8b828c0161095e565b965050606089013567ffffffffffffffff811115610aa857600080fd5b610ab48b828c0161095e565b9550506080610ac58b828c016109e1565b94505060a0610ad68b828c016109e1565b93505060c0610ae78b828c016109e1565b92505060e0610af88b828c016109e1565b9150509295985092959890939650565b600060208284031215610b1a57600080fd5b6000610b28848285016109e1565b91505092915050565b60008060008060808587031215610b4757600080fd5b6000610b55878288016109e1565b9450506020610b66878288016109e1565b9350506040610b77878288016109e1565b9250506060610b88878288016109e1565b91505092959194509250565b600080600080600080600060e0888a031215610baf57600080fd5b6000610bbd8a828b016109e1565b9750506020610bce8a828b016109e1565b9650506040610bdf8a828b016109e1565b9550506060610bf08a828b016109e1565b9450506080610c018a828b016109e1565b93505060a0610c128a828b016109e1565b92505060c0610c238a828b016109e1565b91505092959891949750929550565b6000610c3e8383610ec7565b60a08301905092915050565b6000610c558261114e565b610c5f8185611171565b9350610c6a8361113e565b8060005b83811015610c9b578151610c828882610c32565b9750610c8d83611164565b925050600181019050610c6e565b5085935050505092915050565b610cb181611193565b82525050565b6000610cc282611159565b610ccc8185611182565b9350610cdc8185602086016111a9565b610ce5816111dc565b840191505092915050565b6000610cfd601183611182565b91507f4e6f7420456e63727970742054696d652e0000000000000000000000000000006000830152602082019050919050565b6000610d3d601183611182565b91507f4e6f74205265636f7665722054696d652e0000000000000000000000000000006000830152602082019050919050565b6000610d7d601183611182565b91507f4e6f7420446563727970742054696d652e0000000000000000000000000000006000830152602082019050919050565b6000610dbd601083611182565b91507f4e6f74204173736973742054696d652e000000000000000000000000000000006000830152602082019050919050565b6000610dfd601283611182565b91507f4e6f742052656769737465722054696d652e00000000000000000000000000006000830152602082019050919050565b604082016000820151610e466000850182610f2f565b506020820151610e596020850182610f2f565b50505050565b60a082016000820151610e756000850182610f2f565b506020820151610e886020850182610f2f565b506040820151610e9b6040850182610f2f565b506060820151610eae6060850182610f2f565b506080820151610ec16080850182610f2f565b50505050565b60a082016000820151610edd6000850182610f2f565b506020820151610ef06020850182610f2f565b506040820151610f036040850182610f2f565b506060820151610f166060850182610f2f565b506080820151610f296080850182610f2f565b50505050565b610f388161119f565b82525050565b610f478161119f565b82525050565b60006020820190508181036000830152610f678184610c4a565b905092915050565b6000602082019050610f846000830184610ca8565b92915050565b6000610160820190508181036000830152610fa58189610cb7565b9050610fb46020830188610e30565b610fc16060830187610e5f565b610fcf610100830186610f3e565b610fdd610120830185610f3e565b610feb610140830184610f3e565b979650505050505050565b6000602082019050818103600083015261100f81610cf0565b9050919050565b6000602082019050818103600083015261102f81610d30565b9050919050565b6000602082019050818103600083015261104f81610d70565b9050919050565b6000602082019050818103600083015261106f81610db0565b9050919050565b6000602082019050818103600083015261108f81610df0565b9050919050565b600060a0820190506110ab6000830188610f3e565b6110b86020830187610f3e565b6110c56040830186610f3e565b6110d26060830185610f3e565b6110df6080830184610f3e565b9695505050505050565b6000604051905081810181811067ffffffffffffffff8211171561110c57600080fd5b8060405250919050565b600067ffffffffffffffff82111561112d57600080fd5b602082029050602081019050919050565b6000819050602082019050919050565b600081519050919050565b600081519050919050565b6000602082019050919050565b600082825260208201905092915050565b600082825260208201905092915050565b60008115159050919050565b6000819050919050565b60005b838110156111c75780820151818401526020810190506111ac565b838111156111d6576000848401525b50505050565b6000601f19601f8301169050919050565b6111f68161119f565b811461120157600080fd5b5056fea264697066735822122007a35f570d6e11028e1e677af2ef467e4aecaad34108bd25298285707ad4b8eb64736f6c63430006060033a2646970667358221220154a17199fa25647d14ef0a6dec5488cfe706c51079b9fd1bc19d09934a56b7d64736f6c63430006060033",
  "immutableReferences": {},
  "source": "// SPDX-License-Identifier: SimPL-2.0\r\npragma experimental ABIEncoderV2;\r\npragma solidity ^0.6.4;\r\n\r\nimport './Vote.sol';\r\n\r\ncontract VoteFactory\r\n{\r\n\r\n    struct VoteInfo\r\n    {\r\n        string name;\r\n        Vote vote;\r\n    }\r\n    \r\n    VoteInfo[] public voteList;\r\n    \r\n    function CreateVote(string memory name, uint option, uint max, uint t1, uint t2, uint t3, uint t4, uint t5) public{\r\n        require((t1 > now) && (t2 > t1) && (t3 > t2) && (t4 > t3) && (t5 > t4), \"TIME PARAMETER ERROR\");\r\n        Vote vote = new Vote(msg.sender, name, option, max, t1, t2, t3, t4, t5);\r\n        voteList.push(VoteInfo(name, vote));\r\n    }\r\n    \r\n    function GetVoteList() public view returns(VoteInfo[] memory) {\r\n        return voteList;\r\n    }\r\n}",
  "sourcePath": "/home/niejun/gitpro/Dapp/fair-vote/backend/contracts/VoteFactory.sol",
  "compiler": {
    "name": "solc",
    "version": "0.6.6+commit.6c089d02.Emscripten.clang"
  },
  "schemaVersion": "3.3.1",
  "updatedAt": "2020-11-12T11:25:01.935Z",
  "devdoc": {
    "methods": {}
  },
  "userdoc": {
    "methods": {}
  }
}