{
  "contractName": "VoteFactory",
  "abi": [
    {
      "inputs": [
        {
          "internalType": "uint256",
          "name": "",
          "type": "uint256"
        }
      ],
      "name": "voteList",
      "outputs": [
        {
          "internalType": "string",
          "name": "name",
          "type": "string"
        },
        {
          "internalType": "contract Vote",
          "name": "vote",
          "type": "address"
        }
      ],
      "stateMutability": "view",
      "type": "function",
      "constant": true
    },
    {
      "inputs": [
        {
          "internalType": "string",
          "name": "name",
          "type": "string"
        },
        {
          "internalType": "uint256",
          "name": "option",
          "type": "uint256"
        },
        {
          "internalType": "uint256",
          "name": "max",
          "type": "uint256"
        },
        {
          "internalType": "uint256",
          "name": "t1",
          "type": "uint256"
        },
        {
          "internalType": "uint256",
          "name": "t2",
          "type": "uint256"
        },
        {
          "internalType": "uint256",
          "name": "t3",
          "type": "uint256"
        },
        {
          "internalType": "uint256",
          "name": "t4",
          "type": "uint256"
        },
        {
          "internalType": "uint256",
          "name": "t5",
          "type": "uint256"
        }
      ],
      "name": "CreateVote",
      "outputs": [],
      "stateMutability": "nonpayable",
      "type": "function"
    },
    {
      "inputs": [],
      "name": "GetVoteList",
      "outputs": [
        {
          "components": [
            {
              "internalType": "string",
              "name": "name",
              "type": "string"
            },
            {
              "internalType": "contract Vote",
              "name": "vote",
              "type": "address"
            }
          ],
          "internalType": "struct VoteFactory.VoteInfo[]",
          "name": "",
          "type": "tuple[]"
        }
      ],
      "stateMutability": "view",
      "type": "function",
      "constant": true
    }
  ],
  "bytecode": "0x608060405234801561001057600080fd5b50612a98806100206000396000f3fe60806040523480156200001157600080fd5b5060043610620000465760003560e01c806328fca442146200004b578063a064285d146200006d578063a3989703146200008d575b600080fd5b62000055620000c4565b60405162000064919062000958565b60405180910390f35b6200008b6004803603810190620000859190620005ca565b62000221565b005b620000ab6004803603810190620000a59190620006a6565b620003ac565b604051620000bb9291906200097c565b60405180910390f35b60606000805480602002602001604051908101604052809291908181526020016000905b82821015620002185783829060005260206000209060020201604051806040016040529081600082018054600181600116156101000203166002900480601f016020809104026020016040519081016040528092919081815260200182805460018160011615610100020316600290048015620001a95780601f106200017d57610100808354040283529160200191620001a9565b820191906000526020600020905b8154815290600101906020018083116200018b57829003601f168201915b505050505081526020016001820160009054906101000a900473ffffffffffffffffffffffffffffffffffffffff1673ffffffffffffffffffffffffffffffffffffffff1673ffffffffffffffffffffffffffffffffffffffff168152505081526020019060010190620000e8565b50505050905090565b42851180156200023057508484115b80156200023c57508383115b80156200024857508282115b80156200025457508181115b62000296576040517f08c379a00000000000000000000000000000000000000000000000000000000081526004016200028d90620009b0565b60405180910390fd5b6000338989898989898989604051620002af906200049a565b620002c399989796959493929190620008b2565b604051809103906000f080158015620002e0573d6000803e3d6000fd5b509050600060405180604001604052808b81526020018373ffffffffffffffffffffffffffffffffffffffff168152509080600181540180825580915050600190039060005260206000209060020201600090919091909150600082015181600001908051906020019062000357929190620004a8565b5060208201518160010160006101000a81548173ffffffffffffffffffffffffffffffffffffffff021916908373ffffffffffffffffffffffffffffffffffffffff1602179055505050505050505050505050565b60008181548110620003ba57fe5b9060005260206000209060020201600091509050806000018054600181600116156101000203166002900480601f0160208091040260200160405190810160405280929190818152602001828054600181600116156101000203166002900480156200046a5780601f106200043e576101008083540402835291602001916200046a565b820191906000526020600020905b8154815290600101906020018083116200044c57829003601f168201915b5050505050908060010160009054906101000a900473ffffffffffffffffffffffffffffffffffffffff16905082565b611ed18062000b9283390190565b828054600181600116156101000203166002900490600052602060002090601f016020900481019282601f10620004eb57805160ff19168380011785556200051c565b828001600101855582156200051c579182015b828111156200051b578251825591602001919060010190620004fe565b5b5090506200052b91906200052f565b5090565b6200055491905b808211156200055057600081600090555060010162000536565b5090565b90565b600082601f8301126200056957600080fd5b8135620005806200057a8262000a00565b620009d2565b915080825260208301602083018583830111156200059d57600080fd5b620005aa83828462000b21565b50505092915050565b600081359050620005c48162000b77565b92915050565b600080600080600080600080610100898b031215620005e857600080fd5b600089013567ffffffffffffffff8111156200060357600080fd5b620006118b828c0162000557565b9850506020620006248b828c01620005b3565b9750506040620006378b828c01620005b3565b96505060606200064a8b828c01620005b3565b95505060806200065d8b828c01620005b3565b94505060a0620006708b828c01620005b3565b93505060c0620006838b828c01620005b3565b92505060e0620006968b828c01620005b3565b9150509295985092959890939650565b600060208284031215620006b957600080fd5b6000620006c984828501620005b3565b91505092915050565b6000620006e0838362000860565b905092915050565b620006f38162000abd565b82525050565b6000620007068262000a3d565b62000712818562000a60565b935083602082028501620007268562000a2d565b8060005b85811015620007685784840389528151620007468582620006d2565b9450620007538362000a53565b925060208a019950506001810190506200072a565b50829750879550505050505092915050565b620007858162000ad1565b82525050565b620007968162000ad1565b82525050565b6000620007a98262000a48565b620007b5818562000a71565b9350620007c781856020860162000b30565b620007d28162000b66565b840191505092915050565b6000620007ea8262000a48565b620007f6818562000a82565b93506200080881856020860162000b30565b620008138162000b66565b840191505092915050565b60006200082d60148362000a82565b91507f54494d4520504152414d45544552204552524f520000000000000000000000006000830152602082019050919050565b600060408301600083015184820360008601526200087f82826200079c565b91505060208301516200089660208601826200077a565b508091505092915050565b620008ac8162000ab3565b82525050565b600061012082019050620008ca600083018c620006e8565b8181036020830152620008de818b620007dd565b9050620008ef604083018a620008a1565b620008fe6060830189620008a1565b6200090d6080830188620008a1565b6200091c60a0830187620008a1565b6200092b60c0830186620008a1565b6200093a60e0830185620008a1565b6200094a610100830184620008a1565b9a9950505050505050505050565b60006020820190508181036000830152620009748184620006f9565b905092915050565b60006040820190508181036000830152620009988185620007dd565b9050620009a960208301846200078b565b9392505050565b60006020820190508181036000830152620009cb816200081e565b9050919050565b6000604051905081810181811067ffffffffffffffff82111715620009f657600080fd5b8060405250919050565b600067ffffffffffffffff82111562000a1857600080fd5b601f19601f8301169050602081019050919050565b6000819050602082019050919050565b600081519050919050565b600081519050919050565b6000602082019050919050565b600082825260208201905092915050565b600082825260208201905092915050565b600082825260208201905092915050565b600073ffffffffffffffffffffffffffffffffffffffff82169050919050565b6000819050919050565b600062000aca8262000af9565b9050919050565b600062000ade8262000ae5565b9050919050565b600062000af28262000a93565b9050919050565b600062000b068262000b0d565b9050919050565b600062000b1a8262000a93565b9050919050565b82818337600083830152505050565b60005b8381101562000b5057808201518184015260208101905062000b33565b8381111562000b60576000848401525b50505050565b6000601f19601f8301169050919050565b62000b828162000ab3565b811462000b8e57600080fd5b5056fe60806040526040518060400160405280603f81526020016005815250600080820151816000015560208201518160010155505060016007556000600855600d6009556000600a553480156200005357600080fd5b5060405162001ed138038062001ed18339818101604052810190620000799190620002af565b88600e60006101000a81548173ffffffffffffffffffffffffffffffffffffffff021916908373ffffffffffffffffffffffffffffffffffffffff16021790555087600f9080519060200190620000d292919062000176565b506000600290505b868111620000fa57600160075401600781905550600281029050620000da565b86600a81905550876008819055506040518060a00160405280878152602001868152602001858152602001848152602001838152506002600082015181600001556020820151816001015560408201518160020155606082015181600301556080820151816004015590505050505050505050505050620004a4565b828054600181600116156101000203166002900490600052602060002090601f016020900481019282601f10620001b957805160ff1916838001178555620001ea565b82800160010185558215620001ea579182015b82811115620001e9578251825591602001919060010190620001cc565b5b509050620001f99190620001fd565b5090565b6200022291905b808211156200021e57600081600090555060010162000204565b5090565b90565b600081519050620002368162000470565b92915050565b600082601f8301126200024e57600080fd5b8151620002656200025f82620003cf565b620003a1565b915080825260208301602083018583830111156200028257600080fd5b6200028f8382846200043a565b50505092915050565b600081519050620002a9816200048a565b92915050565b60008060008060008060008060006101208a8c031215620002cf57600080fd5b6000620002df8c828d0162000225565b99505060208a015167ffffffffffffffff811115620002fd57600080fd5b6200030b8c828d016200023c565b98505060406200031e8c828d0162000298565b9750506060620003318c828d0162000298565b9650506080620003448c828d0162000298565b95505060a0620003578c828d0162000298565b94505060c06200036a8c828d0162000298565b93505060e06200037d8c828d0162000298565b925050610100620003918c828d0162000298565b9150509295985092959850929598565b6000604051905081810181811067ffffffffffffffff82111715620003c557600080fd5b8060405250919050565b600067ffffffffffffffff821115620003e757600080fd5b601f19601f8301169050602081019050919050565b6000620004098262000410565b9050919050565b600073ffffffffffffffffffffffffffffffffffffffff82169050919050565b6000819050919050565b60005b838110156200045a5780820151818401526020810190506200043d565b838111156200046a576000848401525b50505050565b6200047b81620003fc565b81146200048757600080fd5b50565b620004958162000430565b8114620004a157600080fd5b50565b611a1d80620004b46000396000f3fe608060405234801561001057600080fd5b50600436106100935760003560e01c806360977a731161006657806360977a73146101245780638c7a59b01461014757806399c9d44214610163578063c3b6fbad1461017f578063c42f90731461019b57610093565b8063086dc20f146100985780630c791324146100b457806330004d5d146100d257806350e2e8af146100ee575b600080fd5b6100b260048036038101906100ad91906110e4565b6101cb565b005b6100bc610354565b6040516100c99190611612565b60405180910390f35b6100ec60048036038101906100e79190610ef7565b61041b565b005b61010860048036038101906101039190611009565b61064c565b60405161011b9796959493929190611634565b60405180910390f35b61012c6106b5565b60405161013e969594939291906117e5565b60405180910390f35b610161600480360381019061015c9190611081565b6107ed565b005b61017d600480360381019061017891906110e4565b610a49565b005b610199600480360381019061019491906110e4565b610bdf565b005b6101b560048036038101906101b09190611032565b610dbe565b6040516101c291906118b1565b60405180910390f35b60006101dc83896000800154610dbe565b905060006101ef85876000800154610dbe565b9050600061020284886000800154610dbe565b9050600061021a6000600101548c6000800154610dbe565b905060008001548385028161022b57fe5b068a148015610248575060008001548183028161024457fe5b0689145b1561030e5786600b600d6000888152602001908152602001600020548154811061026e57fe5b9060005260206000209060060201600301819055506001600b600d600088815260200190815260200160002054815481106102a557fe5b906000526020600020906006020160000160016101000a81548160ff0219169083151502179055507f8ae8852587590886c96f17169a1ee445f9bfb01e900f47d55f93adfa93a3812560016040516102fd91906116d1565b60405180910390a15050505061034b565b7f8ae8852587590886c96f17169a1ee445f9bfb01e900f47d55f93adfa93a38125600060405161033e919061172d565b60405180910390a1505050505b50505050505050565b6060600b805480602002602001604051908101604052809291908181526020016000905b8282101561041257838290600052602060002090600602016040518060e00160405290816000820160009054906101000a900460ff161515151581526020016000820160019054906101000a900460ff161515151581526020016001820154815260200160028201548152602001600382015481526020016004820154815260200160058201548152505081526020019060010190610378565b50505050905090565b60008060008060008090505b60085481101561058457610453868b838151811061044157fe5b60200260200101516000800154610dbe565b945061047c6000600101548c838151811061046a57fe5b60200260200101516000800154610dbe565b92506104a0878c838151811061048e57fe5b60200260200101516000800154610dbe565b93506104db600754820260020a6000600101540a89816104bc57fe5b048b83815181106104c957fe5b60200260200101516000800154610dbe565b91506000800154838602816104ec57fe5b068d82815181106104f957fe5b6020026020010151141580610530575060008001548285028161051857fe5b068c828151811061052557fe5b602002602001015114155b15610577577f8ae8852587590886c96f17169a1ee445f9bfb01e900f47d55f93adfa93a381256000604051610565919061172d565b60405180910390a15050505050610642565b8080600101915050610427565b5086600b600d600088815260200190815260200160002054815481106105a657fe5b9060005260206000209060060201600201819055506001600b600d600088815260200190815260200160002054815481106105dd57fe5b906000526020600020906006020160000160006101000a81548160ff0219169083151502179055507f8ae8852587590886c96f17169a1ee445f9bfb01e900f47d55f93adfa93a3812560016040516106359190611789565b60405180910390a1505050505b5050505050505050565b600b818154811061065957fe5b90600052602060002090600602016000915090508060000160009054906101000a900460ff16908060000160019054906101000a900460ff16908060010154908060020154908060030154908060040154908060050154905087565b60606106bf610e16565b6106c7610e30565b6000806000600f60006002600754600854600954858054600181600116156101000203166002900480601f0160208091040260200160405190810160405280929190818152602001828054600181600116156101000203166002900480156107705780601f1061074557610100808354040283529160200191610770565b820191906000526020600020905b81548152906001019060200180831161075357829003601f168201915b5050505050955084604051806040016040529081600082015481526020016001820154815250509450836040518060a0016040529081600082015481526020016001820154815260200160028201548152602001600382015481526020016004820154815250509350955095509550955095509550909192939495565b4260026000015411610834576040517f08c379a000000000000000000000000000000000000000000000000000000000815260040161082b90611891565b60405180910390fd5b600061084582846000800154610dbe565b9050600061085d600060010154876000800154610dbe565b9050600a54600c541015610a085760008001548183028161087a57fe5b068514156109c957600b6040518060e001604052806000151581526020016000151581526020018581526020016000815260200160008152602001600081526020016000815250908060018154018082558091505060019003906000526020600020906006020160009091909190915060008201518160000160006101000a81548160ff02191690831515021790555060208201518160000160016101000a81548160ff02191690831515021790555060408201518160010155606082015181600201556080820151816003015560a0820151816004015560c082015181600501555050600c54600d600085815260200190815260200160002081905550600c600081548092919060010191905055507f8ae8852587590886c96f17169a1ee445f9bfb01e900f47d55f93adfa93a3812560016040516109ba919061175b565b60405180910390a15050610a43565b7f8ae8852587590886c96f17169a1ee445f9bfb01e900f47d55f93adfa93a3812560006040516109f9919061172d565b60405180910390a15050610a43565b7f8ae8852587590886c96f17169a1ee445f9bfb01e900f47d55f93adfa93a381256000604051610a3891906116ff565b60405180910390a150505b50505050565b42600260030154108015610a61575042600260040154115b610aa0576040517f08c379a0000000000000000000000000000000000000000000000000000000008152600401610a9790611851565b60405180910390fd5b6000610ab183896000800154610dbe565b90506000610ac485876000800154610dbe565b90506000610ad784886000800154610dbe565b90506000610aef6000600101548c6000800154610dbe565b9050600080015483850281610b0057fe5b068a148015610b1d5750600080015481830281610b1957fe5b0689145b15610b995786600b600d60008881526020019081526020016000205481548110610b4357fe5b9060005260206000209060060201600501819055507f8ae8852587590886c96f17169a1ee445f9bfb01e900f47d55f93adfa93a381256001604051610b8891906117b7565b60405180910390a150505050610bd6565b7f8ae8852587590886c96f17169a1ee445f9bfb01e900f47d55f93adfa93a381256000604051610bc9919061172d565b60405180910390a1505050505b50505050505050565b42600260010154108015610bf65750426002800154115b610c35576040517f08c379a0000000000000000000000000000000000000000000000000000000008152600401610c2c90611871565b60405180910390fd5b6000610c4683896000800154610dbe565b90506000610c5985876000800154610dbe565b90506000610c6c84886000800154610dbe565b90506000610c846000600101548c6000800154610dbe565b9050600080015483850281610c9557fe5b068a148015610cb25750600080015481830281610cae57fe5b0689145b15610d785786600b600d60008881526020019081526020016000205481548110610cd857fe5b9060005260206000209060060201600401819055506001600b600d60008881526020019081526020016000205481548110610d0f57fe5b906000526020600020906006020160000160016101000a81548160ff0219169083151502179055507f8ae8852587590886c96f17169a1ee445f9bfb01e900f47d55f93adfa93a381256001604051610d6791906116a3565b60405180910390a150505050610db5565b7f8ae8852587590886c96f17169a1ee445f9bfb01e900f47d55f93adfa93a381256000604051610da8919061172d565b60405180910390a1505050505b50505050505050565b600080600190505b6000841115610e0b57600160028581610ddb57fe5b061415610df1578285820281610ded57fe5b0690505b600184901c93508285860281610e0357fe5b069450610dc6565b809150509392505050565b604051806040016040528060008152602001600081525090565b6040518060a0016040528060008152602001600081526020016000815260200160008152602001600081525090565b600082601f830112610e7057600080fd5b8135610e83610e7e826118f9565b6118cc565b91508181835260208401935060208101905083856020840282011115610ea857600080fd5b60005b83811015610ed85781610ebe8882610ee2565b845260208401935060208301925050600181019050610eab565b5050505092915050565b600081359050610ef1816119d0565b92915050565b600080600080600080600080610100898b031215610f1457600080fd5b600089013567ffffffffffffffff811115610f2e57600080fd5b610f3a8b828c01610e5f565b985050602089013567ffffffffffffffff811115610f5757600080fd5b610f638b828c01610e5f565b975050604089013567ffffffffffffffff811115610f8057600080fd5b610f8c8b828c01610e5f565b965050606089013567ffffffffffffffff811115610fa957600080fd5b610fb58b828c01610e5f565b9550506080610fc68b828c01610ee2565b94505060a0610fd78b828c01610ee2565b93505060c0610fe88b828c01610ee2565b92505060e0610ff98b828c01610ee2565b9150509295985092959890939650565b60006020828403121561101b57600080fd5b600061102984828501610ee2565b91505092915050565b60008060006060848603121561104757600080fd5b600061105586828701610ee2565b935050602061106686828701610ee2565b925050604061107786828701610ee2565b9150509250925092565b6000806000806080858703121561109757600080fd5b60006110a587828801610ee2565b94505060206110b687828801610ee2565b93505060406110c787828801610ee2565b92505060606110d887828801610ee2565b91505092959194509250565b600080600080600080600060e0888a0312156110ff57600080fd5b600061110d8a828b01610ee2565b975050602061111e8a828b01610ee2565b965050604061112f8a828b01610ee2565b95505060606111408a828b01610ee2565b94505060806111518a828b01610ee2565b93505060a06111628a828b01610ee2565b92505060c06111738a828b01610ee2565b91505092959891949750929550565b600061118e8383611566565b60e08301905092915050565b60006111a582611931565b6111af8185611954565b93506111ba83611921565b8060005b838110156111eb5781516111d28882611182565b97506111dd83611947565b9250506001810190506111be565b5085935050505092915050565b61120181611976565b82525050565b61121081611976565b82525050565b60006112218261193c565b61122b8185611965565b935061123b81856020860161198c565b611244816119bf565b840191505092915050565b600061125c600e83611965565b91507f41737369737420737563636573730000000000000000000000000000000000006000830152602082019050919050565b600061129c601183611965565b91507f4e6f74205265636f7665722054696d652e0000000000000000000000000000006000830152602082019050919050565b60006112dc600f83611965565b91507f44656372797074207375636365737300000000000000000000000000000000006000830152602082019050919050565b600061131c601e83611965565b91507f746865206e756d626572206f6620766f7465727320697320656e6f75676800006000830152602082019050919050565b600061135c601283611965565b91507f7468652070726f6f662069732077726f6e6700000000000000000000000000006000830152602082019050919050565b600061139c601083611965565b91507f52656769737465722073756363657373000000000000000000000000000000006000830152602082019050919050565b60006113dc600f83611965565b91507f456e6372797074207375636365737300000000000000000000000000000000006000830152602082019050919050565b600061141c601083611965565b91507f4e6f74204173736973742054696d652e000000000000000000000000000000006000830152602082019050919050565b600061145c601283611965565b91507f4e6f742052656769737465722054696d652e00000000000000000000000000006000830152602082019050919050565b600061149c600f83611965565b91507f5265636f766572207375636365737300000000000000000000000000000000006000830152602082019050919050565b6040820160008201516114e560008501826115f4565b5060208201516114f860208501826115f4565b50505050565b60a08201600082015161151460008501826115f4565b50602082015161152760208501826115f4565b50604082015161153a60408501826115f4565b50606082015161154d60608501826115f4565b50608082015161156060808501826115f4565b50505050565b60e08201600082015161157c60008501826111f8565b50602082015161158f60208501826111f8565b5060408201516115a260408501826115f4565b5060608201516115b560608501826115f4565b5060808201516115c860808501826115f4565b5060a08201516115db60a08501826115f4565b5060c08201516115ee60c08501826115f4565b50505050565b6115fd81611982565b82525050565b61160c81611982565b82525050565b6000602082019050818103600083015261162c818461119a565b905092915050565b600060e082019050611649600083018a611207565b6116566020830189611207565b6116636040830188611603565b6116706060830187611603565b61167d6080830186611603565b61168a60a0830185611603565b61169760c0830184611603565b98975050505050505050565b60006040820190506116b86000830184611207565b81810360208301526116c98161124f565b905092915050565b60006040820190506116e66000830184611207565b81810360208301526116f7816112cf565b905092915050565b60006040820190506117146000830184611207565b81810360208301526117258161130f565b905092915050565b60006040820190506117426000830184611207565b81810360208301526117538161134f565b905092915050565b60006040820190506117706000830184611207565b81810360208301526117818161138f565b905092915050565b600060408201905061179e6000830184611207565b81810360208301526117af816113cf565b905092915050565b60006040820190506117cc6000830184611207565b81810360208301526117dd8161148f565b905092915050565b60006101608201905081810360008301526118008189611216565b905061180f60208301886114cf565b61181c60608301876114fe565b61182a610100830186611603565b611838610120830185611603565b611846610140830184611603565b979650505050505050565b6000602082019050818103600083015261186a8161128f565b9050919050565b6000602082019050818103600083015261188a8161140f565b9050919050565b600060208201905081810360008301526118aa8161144f565b9050919050565b60006020820190506118c66000830184611603565b92915050565b6000604051905081810181811067ffffffffffffffff821117156118ef57600080fd5b8060405250919050565b600067ffffffffffffffff82111561191057600080fd5b602082029050602081019050919050565b6000819050602082019050919050565b600081519050919050565b600081519050919050565b6000602082019050919050565b600082825260208201905092915050565b600082825260208201905092915050565b60008115159050919050565b6000819050919050565b60005b838110156119aa57808201518184015260208101905061198f565b838111156119b9576000848401525b50505050565b6000601f19601f8301169050919050565b6119d981611982565b81146119e457600080fd5b5056fea26469706673582212207a2d587260e46632073a229e6e52027c97cd98a3e643661c6494f4743297cf1264736f6c63430006060033a264697066735822122026a8543a77cbdc58b8f378b024581b06f5d3b2d324f22662b764fe85c4bfa25664736f6c63430006060033",
  "immutableReferences": {},
  "source": "// SPDX-License-Identifier: SimPL-2.0\r\npragma experimental ABIEncoderV2;\r\npragma solidity ^0.6.4;\r\n\r\nimport './Vote.sol';\r\n\r\ncontract VoteFactory\r\n{\r\n\r\n    struct VoteInfo\r\n    {\r\n        string name;\r\n        Vote vote;\r\n    }\r\n    \r\n    VoteInfo[] public voteList;\r\n    \r\n    function CreateVote(string memory name, uint option, uint max, uint t1, uint t2, uint t3, uint t4, uint t5) public{\r\n        require((t1 > now) && (t2 > t1) && (t3 > t2) && (t4 > t3) && (t5 > t4), \"TIME PARAMETER ERROR\");\r\n        Vote vote = new Vote(msg.sender, name, option, max, t1, t2, t3, t4, t5);\r\n        voteList.push(VoteInfo(name, vote));\r\n    }\r\n    \r\n    function GetVoteList() public view returns(VoteInfo[] memory) {\r\n        return voteList;\r\n    }\r\n}",
  "sourcePath": "/home/niejun/gitpro/Dapp/fair-vote/backend/contracts/VoteFactory.sol",
  "compiler": {
    "name": "solc",
    "version": "0.6.6+commit.6c089d02.Emscripten.clang"
  },
  "schemaVersion": "3.3.1",
  "updatedAt": "2020-11-19T10:56:11.345Z",
  "networkType": "ethereum",
  "devdoc": {
    "methods": {}
  },
  "userdoc": {
    "methods": {}
  }
}