{
  "contractName": "Vote",
  "abi": [
    {
      "inputs": [
        {
          "internalType": "address",
          "name": "_address",
          "type": "address"
        },
        {
          "internalType": "string",
          "name": "_voteName",
          "type": "string"
        },
        {
          "internalType": "uint256",
          "name": "option",
          "type": "uint256"
        },
        {
          "internalType": "uint256",
          "name": "max",
          "type": "uint256"
        },
        {
          "internalType": "uint256",
          "name": "t1",
          "type": "uint256"
        },
        {
          "internalType": "uint256",
          "name": "t2",
          "type": "uint256"
        },
        {
          "internalType": "uint256",
          "name": "t3",
          "type": "uint256"
        },
        {
          "internalType": "uint256",
          "name": "t4",
          "type": "uint256"
        },
        {
          "internalType": "uint256",
          "name": "t5",
          "type": "uint256"
        }
      ],
      "stateMutability": "nonpayable",
      "type": "constructor"
    },
    {
      "inputs": [
        {
          "internalType": "uint256",
          "name": "",
          "type": "uint256"
        }
      ],
      "name": "voterList",
      "outputs": [
        {
          "internalType": "uint256",
          "name": "y",
          "type": "uint256"
        },
        {
          "internalType": "uint256",
          "name": "venc",
          "type": "uint256"
        },
        {
          "internalType": "uint256",
          "name": "vdec",
          "type": "uint256"
        },
        {
          "internalType": "uint256",
          "name": "vass",
          "type": "uint256"
        },
        {
          "internalType": "uint256",
          "name": "vrec",
          "type": "uint256"
        }
      ],
      "stateMutability": "view",
      "type": "function"
    },
    {
      "inputs": [],
      "name": "GetVoteInfo",
      "outputs": [
        {
          "internalType": "string",
          "name": "",
          "type": "string"
        },
        {
          "components": [
            {
              "internalType": "uint256",
              "name": "p",
              "type": "uint256"
            },
            {
              "internalType": "uint256",
              "name": "g",
              "type": "uint256"
            }
          ],
          "internalType": "struct Vote.ElGamalValue",
          "name": "",
          "type": "tuple"
        },
        {
          "components": [
            {
              "internalType": "uint256",
              "name": "registerEndTime",
              "type": "uint256"
            },
            {
              "internalType": "uint256",
              "name": "encryptEndTime",
              "type": "uint256"
            },
            {
              "internalType": "uint256",
              "name": "assistEndTime",
              "type": "uint256"
            },
            {
              "internalType": "uint256",
              "name": "decryptEndTime",
              "type": "uint256"
            },
            {
              "internalType": "uint256",
              "name": "recoverEndTime",
              "type": "uint256"
            }
          ],
          "internalType": "struct Vote.TimeValue",
          "name": "",
          "type": "tuple"
        },
        {
          "internalType": "uint256",
          "name": "",
          "type": "uint256"
        },
        {
          "internalType": "uint256",
          "name": "",
          "type": "uint256"
        },
        {
          "internalType": "uint256",
          "name": "",
          "type": "uint256"
        }
      ],
      "stateMutability": "view",
      "type": "function"
    },
    {
      "inputs": [],
      "name": "GetVoterInfo",
      "outputs": [
        {
          "components": [
            {
              "internalType": "uint256",
              "name": "y",
              "type": "uint256"
            },
            {
              "internalType": "uint256",
              "name": "venc",
              "type": "uint256"
            },
            {
              "internalType": "uint256",
              "name": "vdec",
              "type": "uint256"
            },
            {
              "internalType": "uint256",
              "name": "vass",
              "type": "uint256"
            },
            {
              "internalType": "uint256",
              "name": "vrec",
              "type": "uint256"
            }
          ],
          "internalType": "struct Vote.VoterInfo[]",
          "name": "",
          "type": "tuple[]"
        }
      ],
      "stateMutability": "view",
      "type": "function"
    },
    {
      "inputs": [
        {
          "internalType": "uint256",
          "name": "r",
          "type": "uint256"
        },
        {
          "internalType": "uint256",
          "name": "a",
          "type": "uint256"
        },
        {
          "internalType": "uint256",
          "name": "c",
          "type": "uint256"
        },
        {
          "internalType": "uint256",
          "name": "y",
          "type": "uint256"
        }
      ],
      "name": "Register",
      "outputs": [
        {
          "internalType": "bool",
          "name": "success",
          "type": "bool"
        }
      ],
      "stateMutability": "nonpayable",
      "type": "function"
    },
    {
      "inputs": [
        {
          "internalType": "uint256[]",
          "name": "a",
          "type": "uint256[]"
        },
        {
          "internalType": "uint256[]",
          "name": "b",
          "type": "uint256[]"
        },
        {
          "internalType": "uint256[]",
          "name": "r",
          "type": "uint256[]"
        },
        {
          "internalType": "uint256[]",
          "name": "d",
          "type": "uint256[]"
        },
        {
          "internalType": "uint256",
          "name": "c",
          "type": "uint256"
        },
        {
          "internalType": "uint256",
          "name": "_venc",
          "type": "uint256"
        },
        {
          "internalType": "uint256",
          "name": "Y",
          "type": "uint256"
        },
        {
          "internalType": "uint256",
          "name": "y",
          "type": "uint256"
        }
      ],
      "name": "Encrypt",
      "outputs": [
        {
          "internalType": "bool",
          "name": "success",
          "type": "bool"
        }
      ],
      "stateMutability": "nonpayable",
      "type": "function"
    },
    {
      "inputs": [
        {
          "internalType": "uint256",
          "name": "r",
          "type": "uint256"
        },
        {
          "internalType": "uint256",
          "name": "a1",
          "type": "uint256"
        },
        {
          "internalType": "uint256",
          "name": "a2",
          "type": "uint256"
        },
        {
          "internalType": "uint256",
          "name": "c",
          "type": "uint256"
        },
        {
          "internalType": "uint256",
          "name": "_vdec",
          "type": "uint256"
        },
        {
          "internalType": "uint256",
          "name": "Y",
          "type": "uint256"
        },
        {
          "internalType": "uint256",
          "name": "y",
          "type": "uint256"
        }
      ],
      "name": "Decrypt",
      "outputs": [
        {
          "internalType": "bool",
          "name": "success",
          "type": "bool"
        }
      ],
      "stateMutability": "nonpayable",
      "type": "function"
    },
    {
      "inputs": [
        {
          "internalType": "uint256",
          "name": "r",
          "type": "uint256"
        },
        {
          "internalType": "uint256",
          "name": "a1",
          "type": "uint256"
        },
        {
          "internalType": "uint256",
          "name": "a2",
          "type": "uint256"
        },
        {
          "internalType": "uint256",
          "name": "c",
          "type": "uint256"
        },
        {
          "internalType": "uint256",
          "name": "_vass",
          "type": "uint256"
        },
        {
          "internalType": "uint256",
          "name": "h",
          "type": "uint256"
        },
        {
          "internalType": "uint256",
          "name": "y",
          "type": "uint256"
        }
      ],
      "name": "Assist",
      "outputs": [
        {
          "internalType": "bool",
          "name": "success",
          "type": "bool"
        }
      ],
      "stateMutability": "nonpayable",
      "type": "function"
    },
    {
      "inputs": [
        {
          "internalType": "uint256",
          "name": "r",
          "type": "uint256"
        },
        {
          "internalType": "uint256",
          "name": "a1",
          "type": "uint256"
        },
        {
          "internalType": "uint256",
          "name": "a2",
          "type": "uint256"
        },
        {
          "internalType": "uint256",
          "name": "c",
          "type": "uint256"
        },
        {
          "internalType": "uint256",
          "name": "_vrec",
          "type": "uint256"
        },
        {
          "internalType": "uint256",
          "name": "h",
          "type": "uint256"
        },
        {
          "internalType": "uint256",
          "name": "y",
          "type": "uint256"
        }
      ],
      "name": "Recover",
      "outputs": [
        {
          "internalType": "bool",
          "name": "success",
          "type": "bool"
        }
      ],
      "stateMutability": "nonpayable",
      "type": "function"
    }
  ],
  "bytecode": "0x60806040526040518060400160405280620249f18152602001600781525060008082015181600001556020820151816001015550506001600755600d60085560006009556000600a553480156200005557600080fd5b50604051620016e8380380620016e883398181016040528101906200007b9190620002a9565b88600e60006101000a81548173ffffffffffffffffffffffffffffffffffffffff021916908373ffffffffffffffffffffffffffffffffffffffff16021790555087600f9080519060200190620000d492919062000170565b505b8560075460020a11620000f557600160075401600781905550620000d6565b85600a81905550866009819055506040518060a0016040528086815260200185815260200184815260200183815260200182815250600260008201518160000155602082015181600101556040820151816002015560608201518160030155608082015181600401559050505050505050505050506200049e565b828054600181600116156101000203166002900490600052602060002090601f016020900481019282601f10620001b357805160ff1916838001178555620001e4565b82800160010185558215620001e4579182015b82811115620001e3578251825591602001919060010190620001c6565b5b509050620001f39190620001f7565b5090565b6200021c91905b8082111562000218576000816000905550600101620001fe565b5090565b90565b60008151905062000230816200046a565b92915050565b600082601f8301126200024857600080fd5b81516200025f6200025982620003c9565b6200039b565b915080825260208301602083018583830111156200027c57600080fd5b6200028983828462000434565b50505092915050565b600081519050620002a38162000484565b92915050565b60008060008060008060008060006101208a8c031215620002c957600080fd5b6000620002d98c828d016200021f565b99505060208a015167ffffffffffffffff811115620002f757600080fd5b620003058c828d0162000236565b9850506040620003188c828d0162000292565b97505060606200032b8c828d0162000292565b96505060806200033e8c828d0162000292565b95505060a0620003518c828d0162000292565b94505060c0620003648c828d0162000292565b93505060e0620003778c828d0162000292565b9250506101006200038b8c828d0162000292565b9150509295985092959850929598565b6000604051905081810181811067ffffffffffffffff82111715620003bf57600080fd5b8060405250919050565b600067ffffffffffffffff821115620003e157600080fd5b601f19601f8301169050602081019050919050565b600062000403826200040a565b9050919050565b600073ffffffffffffffffffffffffffffffffffffffff82169050919050565b6000819050919050565b60005b838110156200045457808201518184015260208101905062000437565b8381111562000464576000848401525b50505050565b6200047581620003f6565b81146200048157600080fd5b50565b6200048f816200042a565b81146200049b57600080fd5b50565b61123a80620004ae6000396000f3fe608060405234801561001057600080fd5b50600436106100885760003560e01c806360977a731161005b57806360977a731461013f5780638c7a59b01461016257806399c9d44214610192578063c3b6fbad146101c257610088565b8063086dc20f1461008d5780630c791324146100bd57806330004d5d146100db57806350e2e8af1461010b575b600080fd5b6100a760048036038101906100a29190610b94565b6101f2565b6040516100b49190610f6f565b60405180910390f35b6100c56102c5565b6040516100d29190610f4d565b60405180910390f35b6100f560048036038101906100f091906109f6565b610356565b6040516101029190610f6f565b60405180910390f35b61012560048036038101906101209190610b08565b6104cc565b604051610136959493929190611096565b60405180910390f35b61014761050f565b60405161015996959493929190610f8a565b60405180910390f35b61017c60048036038101906101779190610b31565b610647565b6040516101899190610f6f565b60405180910390f35b6101ac60048036038101906101a79190610b94565b61077e565b6040516101b99190610f6f565b60405180910390f35b6101dc60048036038101906101d79190610b94565b61084a565b6040516101e99190610f6f565b60405180910390f35b60004260026001015410801561020c575042600260030154115b61024b576040517f08c379a000000000000000000000000000000000000000000000000000000000815260040161024290611036565b60405180910390fd5b84840a88840a0287148015610271575084820a886000600101540a8161026d57fe5b0486145b156102b55783600b600d6000858152602001908152602001600020548154811061029757fe5b906000526020600020906005020160020181905550600190506102ba565b600090505b979650505050505050565b6060600b805480602002602001604051908101604052809291908181526020016000905b8282101561034d57838290600052602060002090600502016040518060a001604052908160008201548152602001600182015481526020016002820154815260200160038201548152602001600482015481525050815260200190600101906102e9565b50505050905090565b600042600260000154108015610370575042600260010154115b6103af576040517f08c379a00000000000000000000000000000000000000000000000000000000081526004016103a690610ff6565b60405180910390fd5b60008090505b600954811015610484578681815181106103cb57fe5b6020026020010151830a8882815181106103e157fe5b60200260200101516000600101540a028a82815181106103fd57fe5b6020026020010151141580610468575086818151811061041957fe5b6020026020010151600754820260020a6000600101540a868161043857fe5b040a88828151811061044657fe5b6020026020010151850a0289828151811061045d57fe5b602002602001015114155b156104775760009150506104c0565b80806001019150506103b5565b5083600b600d600085815260200190815260200160002054815481106104a657fe5b906000526020600020906005020160010181905550600190505b98975050505050505050565b600b81815481106104d957fe5b90600052602060002090600502016000915090508060000154908060010154908060020154908060030154908060040154905085565b6060610519610915565b61052161092f565b6000806000600f60006002600754600854600954858054600181600116156101000203166002900480601f0160208091040260200160405190810160405280929190818152602001828054600181600116156101000203166002900480156105ca5780601f1061059f576101008083540402835291602001916105ca565b820191906000526020600020905b8154815290600101906020018083116105ad57829003601f168201915b5050505050955084604051806040016040529081600082015481526020016001820154815250509450836040518060a0016040529081600082015481526020016001820154815260200160028201548152602001600382015481526020016004820154815250509350955095509550955095509550909192939495565b60004260026000015411610690576040517f08c379a000000000000000000000000000000000000000000000000000000000815260040161068790611076565b60405180910390fd5b82820a856000600101540a02841480156106ad5750600a54600c54105b1561077157600b6040518060a001604052808481526020016000815260200160008152602001600081526020016000815250908060018154018082558091505060019003906000526020600020906005020160009091909190915060008201518160000155602082015181600101556040820151816002015560608201518160030155608082015181600401555050600c54600d600084815260200190815260200160002081905550600c6000815480929190600101919050555060019050610776565b600090505b949350505050565b600042600260030154108015610798575042600260040154115b6107d7576040517f08c379a00000000000000000000000000000000000000000000000000000000081526004016107ce90611016565b60405180910390fd5b84840a88840a02871480156107f6575084820a886000600101540a0286145b1561083a5783600b600d6000858152602001908152602001600020548154811061081c57fe5b9060005260206000209060050201600401819055506001905061083f565b600090505b979650505050505050565b6000426002600101541080156108635750426002800154115b6108a2576040517f08c379a000000000000000000000000000000000000000000000000000000000815260040161089990611056565b60405180910390fd5b84840a88840a02871480156108c1575084820a886000600101540a0286145b156109055783600b600d600085815260200190815260200160002054815481106108e757fe5b9060005260206000209060050201600301819055506001905061090a565b600090505b979650505050505050565b604051806040016040528060008152602001600081525090565b6040518060a0016040528060008152602001600081526020016000815260200160008152602001600081525090565b600082601f83011261096f57600080fd5b813561098261097d82611116565b6110e9565b915081818352602084019350602081019050838560208402820111156109a757600080fd5b60005b838110156109d757816109bd88826109e1565b8452602084019350602083019250506001810190506109aa565b5050505092915050565b6000813590506109f0816111ed565b92915050565b600080600080600080600080610100898b031215610a1357600080fd5b600089013567ffffffffffffffff811115610a2d57600080fd5b610a398b828c0161095e565b985050602089013567ffffffffffffffff811115610a5657600080fd5b610a628b828c0161095e565b975050604089013567ffffffffffffffff811115610a7f57600080fd5b610a8b8b828c0161095e565b965050606089013567ffffffffffffffff811115610aa857600080fd5b610ab48b828c0161095e565b9550506080610ac58b828c016109e1565b94505060a0610ad68b828c016109e1565b93505060c0610ae78b828c016109e1565b92505060e0610af88b828c016109e1565b9150509295985092959890939650565b600060208284031215610b1a57600080fd5b6000610b28848285016109e1565b91505092915050565b60008060008060808587031215610b4757600080fd5b6000610b55878288016109e1565b9450506020610b66878288016109e1565b9350506040610b77878288016109e1565b9250506060610b88878288016109e1565b91505092959194509250565b600080600080600080600060e0888a031215610baf57600080fd5b6000610bbd8a828b016109e1565b9750506020610bce8a828b016109e1565b9650506040610bdf8a828b016109e1565b9550506060610bf08a828b016109e1565b9450506080610c018a828b016109e1565b93505060a0610c128a828b016109e1565b92505060c0610c238a828b016109e1565b91505092959891949750929550565b6000610c3e8383610ec7565b60a08301905092915050565b6000610c558261114e565b610c5f8185611171565b9350610c6a8361113e565b8060005b83811015610c9b578151610c828882610c32565b9750610c8d83611164565b925050600181019050610c6e565b5085935050505092915050565b610cb181611193565b82525050565b6000610cc282611159565b610ccc8185611182565b9350610cdc8185602086016111a9565b610ce5816111dc565b840191505092915050565b6000610cfd601183611182565b91507f4e6f7420456e63727970742054696d652e0000000000000000000000000000006000830152602082019050919050565b6000610d3d601183611182565b91507f4e6f74205265636f7665722054696d652e0000000000000000000000000000006000830152602082019050919050565b6000610d7d601183611182565b91507f4e6f7420446563727970742054696d652e0000000000000000000000000000006000830152602082019050919050565b6000610dbd601083611182565b91507f4e6f74204173736973742054696d652e000000000000000000000000000000006000830152602082019050919050565b6000610dfd601283611182565b91507f4e6f742052656769737465722054696d652e00000000000000000000000000006000830152602082019050919050565b604082016000820151610e466000850182610f2f565b506020820151610e596020850182610f2f565b50505050565b60a082016000820151610e756000850182610f2f565b506020820151610e886020850182610f2f565b506040820151610e9b6040850182610f2f565b506060820151610eae6060850182610f2f565b506080820151610ec16080850182610f2f565b50505050565b60a082016000820151610edd6000850182610f2f565b506020820151610ef06020850182610f2f565b506040820151610f036040850182610f2f565b506060820151610f166060850182610f2f565b506080820151610f296080850182610f2f565b50505050565b610f388161119f565b82525050565b610f478161119f565b82525050565b60006020820190508181036000830152610f678184610c4a565b905092915050565b6000602082019050610f846000830184610ca8565b92915050565b6000610160820190508181036000830152610fa58189610cb7565b9050610fb46020830188610e30565b610fc16060830187610e5f565b610fcf610100830186610f3e565b610fdd610120830185610f3e565b610feb610140830184610f3e565b979650505050505050565b6000602082019050818103600083015261100f81610cf0565b9050919050565b6000602082019050818103600083015261102f81610d30565b9050919050565b6000602082019050818103600083015261104f81610d70565b9050919050565b6000602082019050818103600083015261106f81610db0565b9050919050565b6000602082019050818103600083015261108f81610df0565b9050919050565b600060a0820190506110ab6000830188610f3e565b6110b86020830187610f3e565b6110c56040830186610f3e565b6110d26060830185610f3e565b6110df6080830184610f3e565b9695505050505050565b6000604051905081810181811067ffffffffffffffff8211171561110c57600080fd5b8060405250919050565b600067ffffffffffffffff82111561112d57600080fd5b602082029050602081019050919050565b6000819050602082019050919050565b600081519050919050565b600081519050919050565b6000602082019050919050565b600082825260208201905092915050565b600082825260208201905092915050565b60008115159050919050565b6000819050919050565b60005b838110156111c75780820151818401526020810190506111ac565b838111156111d6576000848401525b50505050565b6000601f19601f8301169050919050565b6111f68161119f565b811461120157600080fd5b5056fea264697066735822122007a35f570d6e11028e1e677af2ef467e4aecaad34108bd25298285707ad4b8eb64736f6c63430006060033",
  "immutableReferences": {},
  "source": "// SPDX-License-Identifier: SimPL-2.0\r\npragma experimental ABIEncoderV2;\r\npragma solidity ^0.6.4;\r\n\r\ncontract Vote {\r\n    //ElGamal\r\n    struct ElGamalValue {\r\n        uint p;\r\n        uint g;\r\n    }\r\n    //\r\n    struct TimeValue {\r\n        uint registerEndTime;\r\n        uint encryptEndTime;\r\n        uint assistEndTime;\r\n        uint decryptEndTime;\r\n        uint recoverEndTime;\r\n    }\r\n    ElGamalValue _ElGamalValue = ElGamalValue(150001, 7);\r\n    TimeValue _timeValue;\r\n    uint q = 1;    //\r\n    uint s = 13;\r\n    uint o = 0;    //\r\n    uint maxnum = 0;    //\r\n    \r\n    struct VoterInfo {\r\n        uint y;\r\n        uint venc;\r\n        uint vdec;\r\n        uint vass;\r\n        uint vrec;\r\n    }\r\n    \r\n    VoterInfo[] public voterList;\r\n    uint voterNum;    //\r\n    mapping(uint => uint) voters;    //\r\n\r\n    address owner;    //\r\n    string voteName;    //\r\n\r\n    //\r\n    constructor(address _address, string memory _voteName, uint option, uint max, uint t1, uint t2, uint t3, uint t4, uint t5) public {\r\n        owner = _address;\r\n        voteName = _voteName;\r\n        //q\r\n        while(2**q <= max){\r\n            q = q + 1;\r\n        }\r\n        maxnum = max;\r\n        o = option;\r\n        _timeValue = TimeValue(t1, t2, t3, t4, t5);\r\n    }\r\n    \r\n    //\r\n    function GetVoteInfo() public view returns(string memory, ElGamalValue memory, TimeValue memory, uint, uint, uint){\r\n        return (voteName, _ElGamalValue, _timeValue, q, s, o);\r\n    }\r\n    \r\n    //\r\n    function GetVoterInfo() public view returns(VoterInfo[] memory){\r\n        return voterList;\r\n    }\r\n    \r\n    //\r\n    function Register(uint r, uint a, uint c, uint y) public returns (bool success){\r\n        require(_timeValue.registerEndTime > now, \"Not Register Time.\");\r\n        if ((a == _ElGamalValue.g**r * y**c) && (voterNum<maxnum)){\r\n            voterList.push(VoterInfo(y, 0, 0, 0, 0));\r\n            voters[y] = voterNum;\r\n            voterNum++;\r\n            return true;\r\n        }\r\n        return false;\r\n    }\r\n    \r\n    //\r\n    function Encrypt(uint[] memory a, uint[] memory b, uint[] memory r, uint[] memory d, uint c, uint _venc, uint Y, uint y) public returns (bool success){\r\n        require((_timeValue.registerEndTime < now) && (_timeValue.encryptEndTime > now), \"Not Encrypt Time.\");\r\n        for(uint i=0; i<o; i++){\r\n            if((a[i] != _ElGamalValue.g**r[i] * y**d[i]) || (b[i] != Y**r[i] * (_venc/(_ElGamalValue.g**(2**(i*q))))**d[i])){\r\n                return false;\r\n            }\r\n        }\r\n        voterList[voters[y]].venc = _venc;\r\n        return true;\r\n    }\r\n    \r\n    //\r\n    function Decrypt(uint r, uint a1, uint a2, uint c, uint _vdec, uint Y, uint y) public returns (bool success){\r\n        require((_timeValue.encryptEndTime < now) && (_timeValue.decryptEndTime > now), \"Not Decrypt Time.\");\r\n        if ((a1 == Y**r * _vdec**c) && (a2 == _ElGamalValue.g**r / y**c)){\r\n            voterList[voters[y]].vdec = _vdec;\r\n            return true;\r\n        }\r\n        return false;\r\n    }\r\n    \r\n    //\r\n    function Assist(uint r, uint a1, uint a2, uint c, uint _vass, uint h, uint y) public returns (bool success){\r\n        require((_timeValue.encryptEndTime < now) && (_timeValue.assistEndTime > now), \"Not Assist Time.\");\r\n        if ((a1 == h**r * _vass**c) && (a2 == _ElGamalValue.g**r * y**c)){\r\n            voterList[voters[y]].vass = _vass;\r\n            return true;\r\n        }\r\n        return false;\r\n    }\r\n    \r\n    //\r\n    function Recover(uint r, uint a1, uint a2, uint c, uint _vrec, uint h, uint y) public returns (bool success){\r\n        require((_timeValue.decryptEndTime < now) && (_timeValue.recoverEndTime > now), \"Not Recover Time.\");\r\n        if ((a1 == h**r * _vrec**c) && (a2 == _ElGamalValue.g**r * y**c)){\r\n            voterList[voters[y]].vrec = _vrec;\r\n            return true;\r\n        }\r\n        return false;\r\n    }\r\n\r\n}",
  "sourcePath": "/home/niejun/gitpro/Dapp/fair-vote/backend/contracts/Vote.sol",
  "compiler": {
    "name": "solc",
    "version": "0.6.6+commit.6c089d02.Emscripten.clang"
  },
  "schemaVersion": "3.3.1",
  "updatedAt": "2020-11-13T16:00:52.039Z",
  "devdoc": {
    "methods": {}
  },
  "userdoc": {
    "methods": {}
  }
}