{
  "contractName": "Vote",
  "abi": [
    {
      "anonymous": false,
      "inputs": [
        {
          "indexed": false,
          "internalType": "uint64",
          "name": "new_p",
          "type": "uint64"
        },
        {
          "indexed": false,
          "internalType": "uint64",
          "name": "new_g",
          "type": "uint64"
        },
        {
          "indexed": false,
          "internalType": "uint8",
          "name": "new_q",
          "type": "uint8"
        },
        {
          "indexed": false,
          "internalType": "uint8",
          "name": "new_s",
          "type": "uint8"
        },
        {
          "indexed": false,
          "internalType": "uint8",
          "name": "new_o",
          "type": "uint8"
        }
      ],
      "name": "NewInit",
      "type": "event"
    },
    {
      "inputs": [
        {
          "internalType": "uint8",
          "name": "option",
          "type": "uint8"
        },
        {
          "internalType": "uint8",
          "name": "max",
          "type": "uint8"
        },
        {
          "internalType": "uint64",
          "name": "t1",
          "type": "uint64"
        },
        {
          "internalType": "uint64",
          "name": "t2",
          "type": "uint64"
        },
        {
          "internalType": "uint64",
          "name": "t3",
          "type": "uint64"
        },
        {
          "internalType": "uint64",
          "name": "t4",
          "type": "uint64"
        },
        {
          "internalType": "uint64",
          "name": "t5",
          "type": "uint64"
        }
      ],
      "name": "Init",
      "outputs": [],
      "stateMutability": "nonpayable",
      "type": "function"
    }
  ],
  "bytecode": "0x60806040526040518060400160405280620249f167ffffffffffffffff168152602001600767ffffffffffffffff168152506000808201518160000160006101000a81548167ffffffffffffffff021916908367ffffffffffffffff16021790555060208201518160000160086101000a81548167ffffffffffffffff021916908367ffffffffffffffff16021790555050506001600360006101000a81548160ff021916908360ff160217905550600d600360016101000a81548160ff021916908360ff1602179055506000600360026101000a81548160ff021916908360ff1602179055503480156100f257600080fd5b506103b5806101026000396000f3fe608060405234801561001057600080fd5b506004361061002b5760003560e01c8063b4f285a414610030575b600080fd5b6100d0600480360360e081101561004657600080fd5b81019080803560ff169060200190929190803560ff169060200190929190803567ffffffffffffffff169060200190929190803567ffffffffffffffff169060200190929190803567ffffffffffffffff169060200190929190803567ffffffffffffffff169060200190929190803567ffffffffffffffff1690602001909291905050506100d2565b005b5b8560ff16600360009054906101000a900460ff1660021860ff1611610124576001600360009054906101000a900460ff1601600360006101000a81548160ff021916908360ff1602179055506100d3565b86600360026101000a81548160ff021916908360ff1602179055506040518060a001604052808667ffffffffffffffff1681526020018567ffffffffffffffff1681526020018467ffffffffffffffff1681526020018367ffffffffffffffff1681526020018267ffffffffffffffff16815250600160008201518160000160006101000a81548167ffffffffffffffff021916908367ffffffffffffffff16021790555060208201518160000160086101000a81548167ffffffffffffffff021916908367ffffffffffffffff16021790555060408201518160000160106101000a81548167ffffffffffffffff021916908367ffffffffffffffff16021790555060608201518160000160186101000a81548167ffffffffffffffff021916908367ffffffffffffffff16021790555060808201518160010160006101000a81548167ffffffffffffffff021916908367ffffffffffffffff1602179055509050507f601263a0aeff0b07b4b4182394704e79c04424b6b1a213a6bf9f0c91466172ba6000800160009054906101000a900467ffffffffffffffff166000800160089054906101000a900467ffffffffffffffff16600360009054906101000a900460ff16600360019054906101000a900460ff16600360029054906101000a900460ff16604051808667ffffffffffffffff1667ffffffffffffffff1681526020018567ffffffffffffffff1667ffffffffffffffff1681526020018460ff1660ff1681526020018360ff1660ff1681526020018260ff1660ff1681526020019550505050505060405180910390a15050505050505056fea2646970667358221220699464dccf54fe9b651bff8e206f4ae0c0aed16dd303d4278bf027f0198e4c4164736f6c63430006060033",
  "immutableReferences": {},
  "source": "pragma solidity ^0.6.4;\r\n\r\ncontract Vote {\r\n    //ElGamal算法参数\r\n    struct ElGamalValue {\r\n        uint64 p;\r\n        uint64 g;\r\n    }\r\n    //时间参数\r\n    struct TimeValue {\r\n        uint64 registerEndTime;\r\n        uint64 encryptEndTime;\r\n        uint64 assistEndTime;\r\n        uint64 decryptEndTime;\r\n        uint64 recoverEndTime;\r\n    }\r\n    ElGamalValue _ElGamalValue = ElGamalValue(150001, 7);\r\n    TimeValue _timeValue;\r\n    uint8 q = 1;\r\n    uint8 s = 13;\r\n    uint8 o = 0;\r\n    \r\n    //初始化事件\r\n    event NewInit(uint64 new_p, uint64 new_g, uint8 new_q, uint8 new_s, uint8 new_o);\r\n    //初始化函数，为各个参数赋初值\r\n    function Init(uint8 option, uint8 max, uint64 t1, uint64 t2, uint64 t3, uint64 t4, uint64 t5) public {\r\n        //计算q的值\r\n        while(2^q <= max){\r\n            q = q + 1;\r\n        }\r\n\r\n        o = option;\r\n        _timeValue = TimeValue(t1, t2, t3, t4, t5);\r\n\r\n        emit NewInit(_ElGamalValue.p, _ElGamalValue.g, q, s, o);\r\n        \r\n    }\r\n}",
  "sourcePath": "/home/niejun/gitpro/Dapp/fair-vote/contracts/Vote.sol",
  "compiler": {
    "name": "solc",
    "version": "0.6.6+commit.6c089d02.Emscripten.clang"
  },
  "schemaVersion": "3.3.1",
  "updatedAt": "2020-11-06T03:30:23.319Z",
  "networkType": "ethereum",
  "devdoc": {
    "methods": {}
  },
  "userdoc": {
    "methods": {}
  }
}